{
  "contractName": "KYC",
  "abi": [
    {
      "inputs": [],
      "payable": false,
      "stateMutability": "nonpayable",
      "type": "constructor"
    },
    {
      "constant": true,
      "inputs": [
        {
          "internalType": "address",
          "name": "",
          "type": "address"
        }
      ],
      "name": "bankList",
      "outputs": [
        {
          "internalType": "string",
          "name": "name",
          "type": "string"
        },
        {
          "internalType": "address",
          "name": "ethAddress",
          "type": "address"
        },
        {
          "internalType": "uint256",
          "name": "registrationNumber",
          "type": "uint256"
        },
        {
          "internalType": "uint256",
          "name": "kyc_count",
          "type": "uint256"
        },
        {
          "internalType": "bool",
          "name": "kycPermission",
          "type": "bool"
        },
        {
          "internalType": "uint256",
          "name": "report",
          "type": "uint256"
        }
      ],
      "payable": false,
      "stateMutability": "view",
      "type": "function"
    },
    {
      "constant": true,
      "inputs": [
        {
          "internalType": "string",
          "name": "",
          "type": "string"
        }
      ],
      "name": "customerList",
      "outputs": [
        {
          "internalType": "string",
          "name": "userName",
          "type": "string"
        },
        {
          "internalType": "string",
          "name": "data",
          "type": "string"
        },
        {
          "internalType": "uint256",
          "name": "upVotes",
          "type": "uint256"
        },
        {
          "internalType": "uint256",
          "name": "downVotes",
          "type": "uint256"
        },
        {
          "internalType": "address",
          "name": "bankAddress",
          "type": "address"
        },
        {
          "internalType": "bool",
          "name": "kycStatus",
          "type": "bool"
        }
      ],
      "payable": false,
      "stateMutability": "view",
      "type": "function"
    },
    {
      "constant": true,
      "inputs": [
        {
          "internalType": "string",
          "name": "",
          "type": "string"
        }
      ],
      "name": "requestList",
      "outputs": [
        {
          "internalType": "string",
          "name": "userName",
          "type": "string"
        },
        {
          "internalType": "address",
          "name": "bankAddress",
          "type": "address"
        },
        {
          "internalType": "string",
          "name": "customerData",
          "type": "string"
        }
      ],
      "payable": false,
      "stateMutability": "view",
      "type": "function"
    },
    {
      "constant": true,
      "inputs": [
        {
          "internalType": "address",
          "name": "bankAddress",
          "type": "address"
        }
      ],
      "name": "getBankPermissionStatus",
      "outputs": [
        {
          "internalType": "bool",
          "name": "",
          "type": "bool"
        }
      ],
      "payable": false,
      "stateMutability": "view",
      "type": "function"
    },
    {
      "constant": false,
      "inputs": [
        {
          "internalType": "string",
          "name": "userName",
          "type": "string"
        },
        {
          "internalType": "string",
          "name": "hashData",
          "type": "string"
        }
      ],
      "name": "addCustomer",
      "outputs": [
        {
          "internalType": "uint256",
          "name": "",
          "type": "uint256"
        }
      ],
      "payable": false,
      "stateMutability": "nonpayable",
      "type": "function"
    },
    {
      "constant": false,
      "inputs": [
        {
          "internalType": "string",
          "name": "customerName",
          "type": "string"
        }
      ],
      "name": "removeCustomer",
      "outputs": [
        {
          "internalType": "bool",
          "name": "",
          "type": "bool"
        }
      ],
      "payable": false,
      "stateMutability": "nonpayable",
      "type": "function"
    },
    {
      "constant": false,
      "inputs": [
        {
          "internalType": "string",
          "name": "customerName",
          "type": "string"
        },
        {
          "internalType": "string",
          "name": "customerData",
          "type": "string"
        }
      ],
      "name": "modifyCustomer",
      "outputs": [
        {
          "internalType": "bool",
          "name": "",
          "type": "bool"
        }
      ],
      "payable": false,
      "stateMutability": "nonpayable",
      "type": "function"
    },
    {
      "constant": true,
      "inputs": [
        {
          "internalType": "string",
          "name": "customerName",
          "type": "string"
        }
      ],
      "name": "getCustomerDetails",
      "outputs": [
        {
          "internalType": "string",
          "name": "",
          "type": "string"
        },
        {
          "internalType": "string",
          "name": "",
          "type": "string"
        },
        {
          "internalType": "uint256",
          "name": "",
          "type": "uint256"
        },
        {
          "internalType": "uint256",
          "name": "",
          "type": "uint256"
        },
        {
          "internalType": "address",
          "name": "",
          "type": "address"
        },
        {
          "internalType": "bool",
          "name": "",
          "type": "bool"
        }
      ],
      "payable": false,
      "stateMutability": "view",
      "type": "function"
    },
    {
      "constant": false,
      "inputs": [
        {
          "internalType": "string",
          "name": "bankName",
          "type": "string"
        },
        {
          "internalType": "address",
          "name": "bankAddress",
          "type": "address"
        },
        {
          "internalType": "uint256",
          "name": "registrationNumber",
          "type": "uint256"
        }
      ],
      "name": "addBank",
      "outputs": [
        {
          "internalType": "uint256",
          "name": "",
          "type": "uint256"
        }
      ],
      "payable": false,
      "stateMutability": "nonpayable",
      "type": "function"
    },
    {
      "constant": false,
      "inputs": [
        {
          "internalType": "address",
          "name": "bankAddress",
          "type": "address"
        }
      ],
      "name": "reportBank",
      "outputs": [
        {
          "internalType": "bool",
          "name": "",
          "type": "bool"
        }
      ],
      "payable": false,
      "stateMutability": "nonpayable",
      "type": "function"
    },
    {
      "constant": false,
      "inputs": [
        {
          "internalType": "bool",
          "name": "status",
          "type": "bool"
        },
        {
          "internalType": "address",
          "name": "bankAddress",
          "type": "address"
        }
      ],
      "name": "modifyBankKycPermission",
      "outputs": [],
      "payable": false,
      "stateMutability": "nonpayable",
      "type": "function"
    },
    {
      "constant": true,
      "inputs": [
        {
          "internalType": "address",
          "name": "bankAddress",
          "type": "address"
        }
      ],
      "name": "getBankDetails",
      "outputs": [
        {
          "internalType": "string",
          "name": "",
          "type": "string"
        },
        {
          "internalType": "address",
          "name": "",
          "type": "address"
        },
        {
          "internalType": "uint256",
          "name": "",
          "type": "uint256"
        },
        {
          "internalType": "uint256",
          "name": "",
          "type": "uint256"
        },
        {
          "internalType": "bool",
          "name": "",
          "type": "bool"
        },
        {
          "internalType": "uint256",
          "name": "",
          "type": "uint256"
        }
      ],
      "payable": false,
      "stateMutability": "view",
      "type": "function"
    },
    {
      "constant": false,
      "inputs": [
        {
          "internalType": "address",
          "name": "bankAddress",
          "type": "address"
        }
      ],
      "name": "removeBank",
      "outputs": [],
      "payable": false,
      "stateMutability": "nonpayable",
      "type": "function"
    },
    {
      "constant": false,
      "inputs": [
        {
          "internalType": "string",
          "name": "customerName",
          "type": "string"
        },
        {
          "internalType": "string",
          "name": "customerData",
          "type": "string"
        }
      ],
      "name": "createRequest",
      "outputs": [
        {
          "internalType": "uint256",
          "name": "",
          "type": "uint256"
        }
      ],
      "payable": false,
      "stateMutability": "nonpayable",
      "type": "function"
    },
    {
      "constant": false,
      "inputs": [
        {
          "internalType": "string",
          "name": "customerName",
          "type": "string"
        }
      ],
      "name": "upvoteCustomer",
      "outputs": [
        {
          "internalType": "bool",
          "name": "",
          "type": "bool"
        }
      ],
      "payable": false,
      "stateMutability": "nonpayable",
      "type": "function"
    },
    {
      "constant": false,
      "inputs": [
        {
          "internalType": "string",
          "name": "customerName",
          "type": "string"
        }
      ],
      "name": "downvoteCustomer",
      "outputs": [
        {
          "internalType": "bool",
          "name": "",
          "type": "bool"
        }
      ],
      "payable": false,
      "stateMutability": "nonpayable",
      "type": "function"
    },
    {
      "constant": true,
      "inputs": [
        {
          "internalType": "string",
          "name": "customerName",
          "type": "string"
        }
      ],
      "name": "getKycStatus",
      "outputs": [
        {
          "internalType": "bool",
          "name": "",
          "type": "bool"
        }
      ],
      "payable": false,
      "stateMutability": "view",
      "type": "function"
    }
  ],
  "bytecode": "0x608060405234801561001057600080fd5b50336000806101000a81548173ffffffffffffffffffffffffffffffffffffffff021916908373ffffffffffffffffffffffffffffffffffffffff160217905550613993806100606000396000f3fe608060405234801561001057600080fd5b506004361061010b5760003560e01c8063a5a49800116100a2578063e90b11a311610071578063e90b11a314610d4a578063f2f4ed8f14610da6578063f72860ca14610e79578063fac6d12e14610fe3578063fc55ea9d146111cf5761010b565b8063a5a498001461088c578063c91e74e3146108e8578063d2b08b0814610ad4578063df89f81914610be45761010b565b8063713c6314116100de578063713c6314146106525780637d38d711146106a257806394b49563146107755780639649650c146108485761010b565b806315101e02146101105780631e098cf3146102205780633190abc0146103f357806338a5836514610559575b600080fd5b6101526004803603602081101561012657600080fd5b81019080803573ffffffffffffffffffffffffffffffffffffffff1690602001909291905050506112a2565b60405180806020018773ffffffffffffffffffffffffffffffffffffffff1673ffffffffffffffffffffffffffffffffffffffff16815260200186815260200185815260200184151515158152602001838152602001828103825288818151815260200191508051906020019080838360005b838110156101e05780820151818401526020810190506101c5565b50505050905090810190601f16801561020d5780820380516001836020036101000a031916815260200191505b5097505050505050505060405180910390f35b6102d96004803603602081101561023657600080fd5b810190808035906020019064010000000081111561025357600080fd5b82018360208201111561026557600080fd5b8035906020019184600183028401116401000000008311171561028757600080fd5b91908080601f016020809104026020016040519081016040528093929190818152602001838380828437600081840152601f19601f8201169050808301925050505050505091929192905050506114e3565b60405180806020018473ffffffffffffffffffffffffffffffffffffffff1673ffffffffffffffffffffffffffffffffffffffff16815260200180602001838103835286818151815260200191508051906020019080838360005b8381101561034f578082015181840152602081019050610334565b50505050905090810190601f16801561037c5780820380516001836020036101000a031916815260200191505b50838103825284818151815260200191508051906020019080838360005b838110156103b557808201518184015260208101905061039a565b50505050905090810190601f1680156103e25780820380516001836020036101000a031916815260200191505b509550505050505060405180910390f35b6105436004803603604081101561040957600080fd5b810190808035906020019064010000000081111561042657600080fd5b82018360208201111561043857600080fd5b8035906020019184600183028401116401000000008311171561045a57600080fd5b91908080601f016020809104026020016040519081016040528093929190818152602001838380828437600081840152601f19601f820116905080830192505050505050509192919290803590602001906401000000008111156104bd57600080fd5b8201836020820111156104cf57600080fd5b803590602001918460018302840111640100000000831117156104f157600080fd5b91908080601f016020809104026020016040519081016040528093929190818152602001838380828437600081840152601f19601f820116905080830192505050505050509192919290505050611673565b6040518082815260200191505060405180910390f35b61063c6004803603606081101561056f57600080fd5b810190808035906020019064010000000081111561058c57600080fd5b82018360208201111561059e57600080fd5b803590602001918460018302840111640100000000831117156105c057600080fd5b91908080601f016020809104026020016040519081016040528093929190818152602001838380828437600081840152601f19601f820116905080830192505050505050509192919290803573ffffffffffffffffffffffffffffffffffffffff169060200190929190803590602001909291905050506118e1565b6040518082815260200191505060405180910390f35b6106a06004803603604081101561066857600080fd5b81019080803515159060200190929190803573ffffffffffffffffffffffffffffffffffffffff169060200190929190505050611b7b565b005b61075b600480360360208110156106b857600080fd5b81019080803590602001906401000000008111156106d557600080fd5b8201836020820111156106e757600080fd5b8035906020019184600183028401116401000000008311171561070957600080fd5b91908080601f016020809104026020016040519081016040528093929190818152602001838380828437600081840152601f19601f820116905080830192505050505050509192919290505050611c56565b604051808215151515815260200191505060405180910390f35b61082e6004803603602081101561078b57600080fd5b81019080803590602001906401000000008111156107a857600080fd5b8201836020820111156107ba57600080fd5b803590602001918460018302840111640100000000831117156107dc57600080fd5b91908080601f016020809104026020016040519081016040528093929190818152602001838380828437600081840152601f19601f820116905080830192505050505050509192919290505050612041565b604051808215151515815260200191505060405180910390f35b61088a6004803603602081101561085e57600080fd5b81019080803573ffffffffffffffffffffffffffffffffffffffff169060200190929190505050612122565b005b6108ce600480360360208110156108a257600080fd5b81019080803573ffffffffffffffffffffffffffffffffffffffff169060200190929190505050612247565b604051808215151515815260200191505060405180910390f35b6109a1600480360360208110156108fe57600080fd5b810190808035906020019064010000000081111561091b57600080fd5b82018360208201111561092d57600080fd5b8035906020019184600183028401116401000000008311171561094f57600080fd5b91908080601f016020809104026020016040519081016040528093929190818152602001838380828437600081840152601f19601f82011690508083019250505050505050919291929050505061245a565b6040518080602001806020018781526020018681526020018573ffffffffffffffffffffffffffffffffffffffff1673ffffffffffffffffffffffffffffffffffffffff16815260200184151515158152602001838103835289818151815260200191508051906020019080838360005b83811015610a2d578082015181840152602081019050610a12565b50505050905090810190601f168015610a5a5780820380516001836020036101000a031916815260200191505b50838103825288818151815260200191508051906020019080838360005b83811015610a93578082015181840152602081019050610a78565b50505050905090810190601f168015610ac05780820380516001836020036101000a031916815260200191505b509850505050505050505060405180910390f35b610b1660048036036020811015610aea57600080fd5b81019080803573ffffffffffffffffffffffffffffffffffffffff16906020019092919050505061275f565b60405180806020018773ffffffffffffffffffffffffffffffffffffffff1673ffffffffffffffffffffffffffffffffffffffff16815260200186815260200185815260200184151515158152602001838152602001828103825288818151815260200191508051906020019080838360005b83811015610ba4578082015181840152602081019050610b89565b50505050905090810190601f168015610bd15780820380516001836020036101000a031916815260200191505b5097505050505050505060405180910390f35b610d3460048036036040811015610bfa57600080fd5b8101908080359060200190640100000000811115610c1757600080fd5b820183602082011115610c2957600080fd5b80359060200191846001830284011164010000000083111715610c4b57600080fd5b91908080601f016020809104026020016040519081016040528093929190818152602001838380828437600081840152601f19601f82011690508083019250505050505050919291929080359060200190640100000000811115610cae57600080fd5b820183602082011115610cc057600080fd5b80359060200191846001830284011164010000000083111715610ce257600080fd5b91908080601f016020809104026020016040519081016040528093929190818152602001838380828437600081840152601f19601f820116905080830192505050505050509192919290505050612860565b6040518082815260200191505060405180910390f35b610d8c60048036036020811015610d6057600080fd5b81019080803573ffffffffffffffffffffffffffffffffffffffff169060200190929190505050612a83565b604051808215151515815260200191505060405180910390f35b610e5f60048036036020811015610dbc57600080fd5b8101908080359060200190640100000000811115610dd957600080fd5b820183602082011115610deb57600080fd5b80359060200191846001830284011164010000000083111715610e0d57600080fd5b91908080601f016020809104026020016040519081016040528093929190818152602001838380828437600081840152601f19601f820116905080830192505050505050509192919290505050612adc565b604051808215151515815260200191505060405180910390f35b610fc960048036036040811015610e8f57600080fd5b8101908080359060200190640100000000811115610eac57600080fd5b820183602082011115610ebe57600080fd5b80359060200191846001830284011164010000000083111715610ee057600080fd5b91908080601f016020809104026020016040519081016040528093929190818152602001838380828437600081840152601f19601f82011690508083019250505050505050919291929080359060200190640100000000811115610f4357600080fd5b820183602082011115610f5557600080fd5b80359060200191846001830284011164010000000083111715610f7757600080fd5b91908080601f016020809104026020016040519081016040528093929190818152602001838380828437600081840152601f19601f820116905080830192505050505050509192919290505050612da3565b604051808215151515815260200191505060405180910390f35b61109c60048036036020811015610ff957600080fd5b810190808035906020019064010000000081111561101657600080fd5b82018360208201111561102857600080fd5b8035906020019184600183028401116401000000008311171561104a57600080fd5b91908080601f016020809104026020016040519081016040528093929190818152602001838380828437600081840152601f19601f8201169050808301925050505050505091929192905050506130d6565b6040518080602001806020018781526020018681526020018573ffffffffffffffffffffffffffffffffffffffff1673ffffffffffffffffffffffffffffffffffffffff16815260200184151515158152602001838103835289818151815260200191508051906020019080838360005b8381101561112857808201518184015260208101905061110d565b50505050905090810190601f1680156111555780820380516001836020036101000a031916815260200191505b50838103825288818151815260200191508051906020019080838360005b8381101561118e578082015181840152602081019050611173565b50505050905090810190601f1680156111bb5780820380516001836020036101000a031916815260200191505b509850505050505050505060405180910390f35b611288600480360360208110156111e557600080fd5b810190808035906020019064010000000081111561120257600080fd5b82018360208201111561121457600080fd5b8035906020019184600183028401116401000000008311171561123657600080fd5b91908080601f016020809104026020016040519081016040528093929190818152602001838380828437600081840152601f19601f820116905080830192505050505050509192919290505050613285565b604051808215151515815260200191505060405180910390f35b606060008060008060006112b58761341a565b611327576040517f08c379a00000000000000000000000000000000000000000000000000000000081526004018080602001828103825260138152602001807f42616e6b20646f65736e6f74206578697374730000000000000000000000000081525060200191505060405180910390fd5b61132f61372a565b600260008973ffffffffffffffffffffffffffffffffffffffff1673ffffffffffffffffffffffffffffffffffffffff1681526020019081526020016000206040518060c0016040529081600082018054600181600116156101000203166002900480601f0160208091040260200160405190810160405280929190818152602001828054600181600116156101000203166002900480156114125780601f106113e757610100808354040283529160200191611412565b820191906000526020600020905b8154815290600101906020018083116113f557829003601f168201915b505050505081526020016001820160009054906101000a900473ffffffffffffffffffffffffffffffffffffffff1673ffffffffffffffffffffffffffffffffffffffff1673ffffffffffffffffffffffffffffffffffffffff16815260200160028201548152602001600382015481526020016004820160009054906101000a900460ff161515151581526020016005820154815250509050806000015181602001518260400151836060015184608001518560a001518595509650965096509650965096505091939550919395565b600481805160208101820180518482526020830160208501208183528095505050505050600091509050806000018054600181600116156101000203166002900480601f0160208091040260200160405190810160405280929190818152602001828054600181600116156101000203166002900480156115a55780601f1061157a576101008083540402835291602001916115a5565b820191906000526020600020905b81548152906001019060200180831161158857829003601f168201915b5050505050908060010160009054906101000a900473ffffffffffffffffffffffffffffffffffffffff1690806002018054600181600116156101000203166002900480601f0160208091040260200160405190810160405280929190818152602001828054600181600116156101000203166002900480156116695780601f1061163e57610100808354040283529160200191611669565b820191906000526020600020905b81548152906001019060200180831161164c57829003601f168201915b5050505050905083565b60008161167f3361341a565b6116f1576040517f08c379a000000000000000000000000000000000000000000000000000000000815260040180806020018281038252600e8152602001807f4e6f7420617574686f726973656400000000000000000000000000000000000081525060200191505060405180910390fd5b6116fa816134c5565b1561176d576040517f08c379a00000000000000000000000000000000000000000000000000000000081526004018080602001828103825260178152602001807f437573746f6d657220616c72656164792065786973747300000000000000000081525060200191505060405180910390fd5b6040518060c0016040528085815260200184815260200160008152602001600081526020013373ffffffffffffffffffffffffffffffffffffffff168152602001600015158152506001856040518082805190602001908083835b602083106117eb57805182526020820191506020810190506020830392506117c8565b6001836020036101000a0380198251168184511680821785525050505050509050019150509081526020016040518091039020600082015181600001908051906020019061183a929190613778565b506020820151816001019080519060200190611857929190613778565b50604082015181600201556060820151816003015560808201518160040160006101000a81548173ffffffffffffffffffffffffffffffffffffffff021916908373ffffffffffffffffffffffffffffffffffffffff16021790555060a08201518160040160146101000a81548160ff021916908315150217905550905050600191505092915050565b6000826118ed8161341a565b15611960576040517f08c379a00000000000000000000000000000000000000000000000000000000081526004018080602001828103825260138152602001807f42616e6b20616c7265616479206578697374730000000000000000000000000081525060200191505060405180910390fd5b3361196a816135bc565b6119dc576040517f08c379a000000000000000000000000000000000000000000000000000000000815260040180806020018281038252600e8152602001807f4e6f7420417574686f726973656400000000000000000000000000000000000081525060200191505060405180910390fd5b6040518060c001604052808781526020018673ffffffffffffffffffffffffffffffffffffffff168152602001858152602001600081526020016001151581526020016000815250600260008773ffffffffffffffffffffffffffffffffffffffff1673ffffffffffffffffffffffffffffffffffffffff1681526020019081526020016000206000820151816000019080519060200190611a7f929190613778565b5060208201518160010160006101000a81548173ffffffffffffffffffffffffffffffffffffffff021916908373ffffffffffffffffffffffffffffffffffffffff160217905550604082015181600201556060820151816003015560808201518160040160006101000a81548160ff02191690831515021790555060a0820151816005015590505060038590806001815401808255809150509060018203906000526020600020016000909192909190916101000a81548173ffffffffffffffffffffffffffffffffffffffff021916908373ffffffffffffffffffffffffffffffffffffffff160217905550506001925050509392505050565b33611b85816135bc565b611bf7576040517f08c379a000000000000000000000000000000000000000000000000000000000815260040180806020018281038252600e8152602001807f4e6f7420417574686f726973656400000000000000000000000000000000000081525060200191505060405180910390fd5b82600260008473ffffffffffffffffffffffffffffffffffffffff1673ffffffffffffffffffffffffffffffffffffffff16815260200190815260200160002060040160006101000a81548160ff021916908315150217905550505050565b600033611c6281612a83565b611cd4576040517f08c379a00000000000000000000000000000000000000000000000000000000081526004018080602001828103825260168152602001807f42616e6b206973206e6f7420417574686f72697365640000000000000000000081525060200191505060405180910390fd5b611cdd83613626565b611d32576040517f08c379a000000000000000000000000000000000000000000000000000000000815260040180806020018281038252602b815260200180613934602b913960400191505060405180910390fd5b6000611d3c61371d565b90506001846040518082805190602001908083835b60208310611d745780518252602082019150602081019050602083039250611d51565b6001836020036101000a0380198251168184511680821785525050505050509050019150509081526020016040518091039020600301600081548092919060010191905055506001846040518082805190602001908083835b60208310611df05780518252602082019150602081019050602083039250611dcd565b6001836020036101000a0380198251168184511680821785525050505050509050019150509081526020016040518091039020600201546001856040518082805190602001908083835b60208310611e5d5780518252602082019150602081019050602083039250611e3a565b6001836020036101000a0380198251168184511680821785525050505050509050019150509081526020016040518091039020600301541115611f245760006001856040518082805190602001908083835b60208310611ed25780518252602082019150602081019050602083039250611eaf565b6001836020036101000a038019825116818451168082178552505050505050905001915050908152602001604051809103902060040160146101000a81548160ff021916908315150217905550612036565b60058111156120355760218160646001876040518082805190602001908083835b60208310611f685780518252602082019150602081019050602083039250611f45565b6001836020036101000a0380198251168184511680821785525050505050509050019150509081526020016040518091039020600301540281611fa757fe5b0411156120345760006001856040518082805190602001908083835b60208310611fe65780518252602082019150602081019050602083039250611fc3565b6001836020036101000a038019825116818451168082178552505050505050905001915050908152602001604051809103902060040160146101000a81548160ff0219169083151502179055505b5b5b600192505050919050565b600061204c82613626565b6120a1576040517f08c379a000000000000000000000000000000000000000000000000000000000815260040180806020018281038252602b815260200180613934602b913960400191505060405180910390fd5b6001826040518082805190602001908083835b602083106120d757805182526020820191506020810190506020830392506120b4565b6001836020036101000a038019825116818451168082178552505050505050905001915050908152602001604051809103902060040160149054906101000a900460ff169050919050565b3361212c816135bc565b61219e576040517f08c379a000000000000000000000000000000000000000000000000000000000815260040180806020018281038252600e8152602001807f4e6f7420417574686f726973656400000000000000000000000000000000000081525060200191505060405180910390fd5b600260008373ffffffffffffffffffffffffffffffffffffffff1673ffffffffffffffffffffffffffffffffffffffff168152602001908152602001600020600080820160006121ee91906137f8565b6001820160006101000a81549073ffffffffffffffffffffffffffffffffffffffff0219169055600282016000905560038201600090556004820160006101000a81549060ff0219169055600582016000905550505050565b60006122523361341a565b6122c4576040517f08c379a000000000000000000000000000000000000000000000000000000000815260040180806020018281038252600e8152602001807f4e6f7420617574686f726973656400000000000000000000000000000000000081525060200191505060405180910390fd5b6122cd8261341a565b61233f576040517f08c379a00000000000000000000000000000000000000000000000000000000081526004018080602001828103825260138152602001807f42616e6b20646f65736e6f74206578697374730000000000000000000000000081525060200191505060405180910390fd5b600260008373ffffffffffffffffffffffffffffffffffffffff1673ffffffffffffffffffffffffffffffffffffffff16815260200190815260200160002060050160008154809291906001019190505550600061239b61371d565b90506021816064600260008773ffffffffffffffffffffffffffffffffffffffff1673ffffffffffffffffffffffffffffffffffffffff1681526020019081526020016000206005015402816123ed57fe5b041115612450576000600260008573ffffffffffffffffffffffffffffffffffffffff1673ffffffffffffffffffffffffffffffffffffffff16815260200190815260200160002060040160006101000a81548160ff0219169083151502179055505b6001915050919050565b60608060008060008061246c876134c5565b6124de576040517f08c379a00000000000000000000000000000000000000000000000000000000081526004018080602001828103825260178152602001807f437573746f6d657220646f65736e6f742065786973747300000000000000000081525060200191505060405180910390fd5b6124e6613840565b6001886040518082805190602001908083835b6020831061251c57805182526020820191506020810190506020830392506124f9565b6001836020036101000a03801982511681845116808217855250505050505090500191505090815260200160405180910390206040518060c0016040529081600082018054600181600116156101000203166002900480601f0160208091040260200160405190810160405280929190818152602001828054600181600116156101000203166002900480156125f35780601f106125c8576101008083540402835291602001916125f3565b820191906000526020600020905b8154815290600101906020018083116125d657829003601f168201915b50505050508152602001600182018054600181600116156101000203166002900480601f0160208091040260200160405190810160405280929190818152602001828054600181600116156101000203166002900480156126955780601f1061266a57610100808354040283529160200191612695565b820191906000526020600020905b81548152906001019060200180831161267857829003601f168201915b5050505050815260200160028201548152602001600382015481526020016004820160009054906101000a900473ffffffffffffffffffffffffffffffffffffffff1673ffffffffffffffffffffffffffffffffffffffff1673ffffffffffffffffffffffffffffffffffffffff1681526020016004820160149054906101000a900460ff1615151515815250509050806000015181602001518260400151836060015184608001518560a001518595508494509650965096509650965096505091939550919395565b6002602052806000526040600020600091509050806000018054600181600116156101000203166002900480601f01602080910402602001604051908101604052809291908181526020018280546001816001161561010002031660029004801561280b5780601f106127e05761010080835404028352916020019161280b565b820191906000526020600020905b8154815290600101906020018083116127ee57829003601f168201915b5050505050908060010160009054906101000a900473ffffffffffffffffffffffffffffffffffffffff16908060020154908060030154908060040160009054906101000a900460ff16908060050154905086565b60008261286c81613626565b156128df576040517f08c379a000000000000000000000000000000000000000000000000000000000815260040180806020018281038252601f8152602001807f437573746f6d6572205265717565737420616c7265616479206578697374730081525060200191505060405180910390fd5b6128e833612a83565b61295a576040517f08c379a00000000000000000000000000000000000000000000000000000000081526004018080602001828103825260168152602001807f42616e6b20486173206265656e205265706f727465640000000000000000000081525060200191505060405180910390fd5b60405180606001604052808581526020013373ffffffffffffffffffffffffffffffffffffffff168152602001848152506004856040518082805190602001908083835b602083106129c1578051825260208201915060208101905060208303925061299e565b6001836020036101000a03801982511681845116808217855250505050505090500191505090815260200160405180910390206000820151816000019080519060200190612a10929190613778565b5060208201518160010160006101000a81548173ffffffffffffffffffffffffffffffffffffffff021916908373ffffffffffffffffffffffffffffffffffffffff1602179055506040820151816002019080519060200190612a74929190613778565b50905050600191505092915050565b6000600260008373ffffffffffffffffffffffffffffffffffffffff1673ffffffffffffffffffffffffffffffffffffffff16815260200190815260200160002060040160009054906101000a900460ff169050919050565b600033612ae881612a83565b612b5a576040517f08c379a00000000000000000000000000000000000000000000000000000000081526004018080602001828103825260168152602001807f42616e6b206973206e6f7420417574686f72697365640000000000000000000081525060200191505060405180910390fd5b612b6383613626565b612bb8576040517f08c379a000000000000000000000000000000000000000000000000000000000815260040180806020018281038252602b815260200180613934602b913960400191505060405180910390fd5b6001836040518082805190602001908083835b60208310612bee5780518252602082019150602081019050602083039250612bcb565b6001836020036101000a0380198251168184511680821785525050505050509050019150509081526020016040518091039020600201600081548092919060010191905055506001836040518082805190602001908083835b60208310612c6a5780518252602082019150602081019050602083039250612c47565b6001836020036101000a0380198251168184511680821785525050505050509050019150509081526020016040518091039020600201546001846040518082805190602001908083835b60208310612cd75780518252602082019150602081019050602083039250612cb4565b6001836020036101000a0380198251168184511680821785525050505050509050019150509081526020016040518091039020600301541015612d9957600180846040518082805190602001908083835b60208310612d4b5780518252602082019150602081019050602083039250612d28565b6001836020036101000a038019825116818451168082178552505050505050905001915050908152602001604051809103902060040160146101000a81548160ff0219169083151502179055505b6001915050919050565b6000612dae836134c5565b612e20576040517f08c379a00000000000000000000000000000000000000000000000000000000081526004018080602001828103825260178152602001807f437573746f6d657220646f65736e6f742065786973747300000000000000000081525060200191505060405180910390fd5b612e2983613626565b15612ee2576004836040518082805190602001908083835b60208310612e645780518252602082019150602081019050602083039250612e41565b6001836020036101000a038019825116818451168082178552505050505050905001915050908152602001604051809103902060008082016000612ea891906137f8565b6001820160006101000a81549073ffffffffffffffffffffffffffffffffffffffff0219169055600282016000612edf91906137f8565b50505b816001846040518082805190602001908083835b60208310612f195780518252602082019150602081019050602083039250612ef6565b6001836020036101000a03801982511681845116808217855250505050505090500191505090815260200160405180910390206001019080519060200190612f6292919061388e565b5060006001846040518082805190602001908083835b60208310612f9b5780518252602082019150602081019050602083039250612f78565b6001836020036101000a03801982511681845116808217855250505050505090500191505090815260200160405180910390206002018190555060006001846040518082805190602001908083835b6020831061300d5780518252602082019150602081019050602083039250612fea565b6001836020036101000a03801982511681845116808217855250505050505090500191505090815260200160405180910390206003018190555060006001846040518082805190602001908083835b6020831061307f578051825260208201915060208101905060208303925061305c565b6001836020036101000a038019825116818451168082178552505050505050905001915050908152602001604051809103902060040160146101000a81548160ff0219169083151502179055506001905092915050565b600181805160208101820180518482526020830160208501208183528095505050505050600091509050806000018054600181600116156101000203166002900480601f0160208091040260200160405190810160405280929190818152602001828054600181600116156101000203166002900480156131985780601f1061316d57610100808354040283529160200191613198565b820191906000526020600020905b81548152906001019060200180831161317b57829003601f168201915b505050505090806001018054600181600116156101000203166002900480601f0160208091040260200160405190810160405280929190818152602001828054600181600116156101000203166002900480156132365780601f1061320b57610100808354040283529160200191613236565b820191906000526020600020905b81548152906001019060200180831161321957829003601f168201915b5050505050908060020154908060030154908060040160009054906101000a900473ffffffffffffffffffffffffffffffffffffffff16908060040160149054906101000a900460ff16905086565b60006004826040518082805190602001908083835b602083106132bd578051825260208201915060208101905060208303925061329a565b6001836020036101000a03801982511681845116808217855250505050505090500191505090815260200160405180910390206000808201600061330191906137f8565b6001820160006101000a81549073ffffffffffffffffffffffffffffffffffffffff021916905560028201600061333891906137f8565b50506001826040518082805190602001908083835b60208310613370578051825260208201915060208101905060208303925061334d565b6001836020036101000a0380198251168184511680821785525050505050509050019150509081526020016040518091039020600080820160006133b491906137f8565b6001820160006133c491906137f8565b600282016000905560038201600090556004820160006101000a81549073ffffffffffffffffffffffffffffffffffffffff02191690556004820160146101000a81549060ff0219169055505060019050919050565b60008173ffffffffffffffffffffffffffffffffffffffff16600260008473ffffffffffffffffffffffffffffffffffffffff1673ffffffffffffffffffffffffffffffffffffffff16815260200190815260200160002060010160009054906101000a900473ffffffffffffffffffffffffffffffffffffffff1673ffffffffffffffffffffffffffffffffffffffff1614156134bb57600190506134c0565b600090505b919050565b600081805190602001206001836040518082805190602001908083835b6020831061350557805182526020820191506020810190506020830392506134e2565b6001836020036101000a038019825116818451168082178552505050505050905001915050908152602001604051809103902060000160405180828054600181600116156101000203166002900480156135965780601f10613574576101008083540402835291820191613596565b820191906000526020600020905b815481529060010190602001808311613582575b5050915050604051809103902014156135b257600190506135b7565b600090505b919050565b60008173ffffffffffffffffffffffffffffffffffffffff166000809054906101000a900473ffffffffffffffffffffffffffffffffffffffff1673ffffffffffffffffffffffffffffffffffffffff16141561361c5760019050613621565b600090505b919050565b600081805190602001206004836040518082805190602001908083835b602083106136665780518252602082019150602081019050602083039250613643565b6001836020036101000a038019825116818451168082178552505050505050905001915050908152602001604051809103902060000160405180828054600181600116156101000203166002900480156136f75780601f106136d55761010080835404028352918201916136f7565b820191906000526020600020905b8154815290600101906020018083116136e3575b5050915050604051809103902014156137135760019050613718565b600090505b919050565b6000600380549050905090565b6040518060c0016040528060608152602001600073ffffffffffffffffffffffffffffffffffffffff1681526020016000815260200160008152602001600015158152602001600081525090565b828054600181600116156101000203166002900490600052602060002090601f016020900481019282601f106137b957805160ff19168380011785556137e7565b828001600101855582156137e7579182015b828111156137e65782518255916020019190600101906137cb565b5b5090506137f4919061390e565b5090565b50805460018160011615610100020316600290046000825580601f1061381e575061383d565b601f01602090049060005260206000209081019061383c919061390e565b5b50565b6040518060c0016040528060608152602001606081526020016000815260200160008152602001600073ffffffffffffffffffffffffffffffffffffffff1681526020016000151581525090565b828054600181600116156101000203166002900490600052602060002090601f016020900481019282601f106138cf57805160ff19168380011785556138fd565b828001600101855582156138fd579182015b828111156138fc5782518255916020019190600101906138e1565b5b50905061390a919061390e565b5090565b61393091905b8082111561392c576000816000905550600101613914565b5090565b9056fe4b5943207265717565737420666f722074686520637573746f6d657220646f65736e6f7420657869737473a265627a7a723158204d236e5cae34fed55da7803c5546bd3718371fbf9cc401bbc649d81a7ecc153664736f6c63430005100032",
  "source": "pragma solidity >=0.4.22 <0.9.0;\n\ncontract KYC {\n    address admin;\n\n    constructor() public {\n        admin = msg.sender;\n    }\n\n    struct Customer {\n        string userName;\n        string data;\n        uint256 upVotes;\n        uint256 downVotes;\n        address bankAddress;\n        bool kycStatus;\n    }\n\n    struct Bank {\n        string name;\n        address ethAddress;\n        uint256 registrationNumber;\n        uint256 kyc_count;\n        bool kycPermission;\n        uint256 report;\n    }\n\n    struct KYC_request {\n        string userName;\n        address bankAddress;\n        string customerData;\n    }\n\n    mapping(string => Customer) public customerList;\n    mapping(address => Bank) public bankList;\n    address[] bankAddresses;\n    mapping(string => KYC_request) public requestList;\n\n    function isAdmin(address senderAddress) private view returns (bool) {\n        if (admin == senderAddress) {\n            return true;\n        } else {\n            return false;\n        }\n    }\n\n    function isBanKExists(address ethAddress) private view returns (bool) {\n        if (bankList[ethAddress].ethAddress == ethAddress) {\n            return true;\n        }\n        return false;\n    }\n\n    function isCustomerExists(string memory customerName)\n        private\n        view\n        returns (bool)\n    {\n        if (\n            (keccak256(bytes(customerList[customerName].userName)) ==\n                keccak256(bytes(customerName)))\n        ) {\n            return true;\n        }\n        return false;\n    }\n\n    function isKYCRequestExists(string memory customerName)\n        private\n        view\n        returns (bool)\n    {\n        if (\n            keccak256(bytes(requestList[customerName].userName)) ==\n            keccak256(bytes(customerName))\n        ) {\n            return true;\n        }\n        return false;\n    }\n\n    function getTotalBanks() private view returns (uint256) {\n        return bankAddresses.length;\n    }\n\n    function getBankPermissionStatus(address bankAddress)\n        public\n        view\n        returns (bool)\n    {\n        return bankList[bankAddress].kycPermission;\n    }\n\n    // Access modifiers\n    modifier checkIfUserExists(string memory customerName) {\n        require(isBanKExists(msg.sender), \"Not authorised\");\n        require(!isCustomerExists(customerName), \"Customer already exists\");\n        _;\n    }\n\n    modifier checkIfBankExists(address bankAddress) {\n        require(!isBanKExists(bankAddress), \"Bank already exists\");\n        _;\n    }\n\n    modifier checkIfRequestAlreadyExists(string memory customerName) {\n        require(\n            !isKYCRequestExists(customerName),\n            \"Customer Request already exists\"\n        );\n        _;\n    }\n\n    modifier checkIfIsAdmin(address userAddress) {\n        require(isAdmin(userAddress), \"Not Authorised\");\n        _;\n    }\n\n    modifier authorisedBank(address bankAddress) {\n        require(getBankPermissionStatus(bankAddress), \"Bank is not Authorised\");\n        _;\n    }\n\n    function addCustomer(string memory userName, string memory hashData)\n        public\n        checkIfUserExists(hashData)\n        returns (uint256)\n    {\n        //require(bankList[msg.sender], \"Invalid Bank address\");\n        customerList[userName] = Customer(\n            userName,\n            hashData,\n            0,\n            0,\n            msg.sender,\n            false\n        );\n        return 1;\n    }\n\n    function removeCustomer(string memory customerName) public returns (bool) {\n        delete requestList[customerName];\n        delete customerList[customerName];\n        return true;\n    }\n\n    function modifyCustomer(\n        string memory customerName,\n        string memory customerData\n    ) public returns (bool) {\n        require(isCustomerExists(customerName), \"Customer doesnot exists\");\n        if (isKYCRequestExists(customerName)) {\n            delete requestList[customerName];\n        }\n        customerList[customerName].data = customerData;\n        customerList[customerName].upVotes = 0;\n        customerList[customerName].downVotes = 0;\n        customerList[customerName].kycStatus = false;\n        return true;\n    }\n\n    function getCustomerDetails(string memory customerName)\n        public\n        view\n        returns (\n            string memory,\n            string memory,\n            uint256,\n            uint256,\n            address,\n            bool\n        )\n    {\n        require(isCustomerExists(customerName), \"Customer doesnot exists\");\n        Customer memory details = customerList[customerName];\n        return (\n            details.userName,\n            details.data,\n            details.upVotes,\n            details.downVotes,\n            details.bankAddress,\n            details.kycStatus\n        );\n    }\n\n    //Bank Interface\n    function addBank(\n        string memory bankName,\n        address bankAddress,\n        uint256 registrationNumber\n    )\n        public\n        checkIfBankExists(bankAddress)\n        checkIfIsAdmin(msg.sender)\n        returns (uint256)\n    {\n        bankList[bankAddress] = Bank(\n            bankName,\n            bankAddress,\n            registrationNumber,\n            0,\n            true,\n            0\n        );\n        bankAddresses.push(bankAddress);\n        return 1;\n    }\n\n    // To report Bank\n    function reportBank(address bankAddress) public returns (bool) {\n        require(isBanKExists(msg.sender), \"Not authorised\");\n        require(isBanKExists(bankAddress), \"Bank doesnot exists\");\n        bankList[bankAddress].report++;\n        uint256 totalBanks = getTotalBanks();\n\n        //To set kycPermission to false if reporte more by 33 percent of banks\n        if ((bankList[bankAddress].report * 100) / totalBanks > 33) {\n            bankList[bankAddress].kycPermission = false;\n        }\n        return true;\n    }\n\n    // Modify KYC status\n    function modifyBankKycPermission(bool status, address bankAddress)\n        public\n        checkIfIsAdmin(msg.sender)\n    {\n        bankList[bankAddress].kycPermission = status;\n    }\n\n    //view Bank Details\n    function getBankDetails(address bankAddress)\n        public\n        view\n        returns (\n            string memory,\n            address,\n            uint256,\n            uint256,\n            bool,\n            uint256\n        )\n    {\n        require(isBanKExists(bankAddress), \"Bank doesnot exists\");\n        Bank memory details = bankList[bankAddress];\n        return (\n            details.name,\n            details.ethAddress,\n            details.registrationNumber,\n            details.kyc_count,\n            details.kycPermission,\n            details.report\n        );\n    }\n\n    //remove bankAddress\n    function removeBank(address bankAddress) public checkIfIsAdmin(msg.sender) {\n        delete bankList[bankAddress];\n    }\n\n    //KYC Request functions\n    function createRequest(\n        string memory customerName,\n        string memory customerData\n    ) public checkIfRequestAlreadyExists(customerName) returns (uint256) {\n        require(getBankPermissionStatus(msg.sender), \"Bank Has been Reported\");\n        requestList[customerName] = KYC_request(\n            customerName,\n            msg.sender,\n            customerData\n        );\n        return 1;\n    }\n\n    // To upvote\n    function upvoteCustomer(string memory customerName)\n        public\n        authorisedBank(msg.sender)\n        returns (bool)\n    {\n        require(\n            isKYCRequestExists(customerName),\n            \"KYC request for the customer doesnot exists\"\n        );\n        customerList[customerName].upVotes++;\n        if (\n            customerList[customerName].downVotes <\n            customerList[customerName].upVotes\n        ) {\n            customerList[customerName].kycStatus = true;\n        }\n        return true;\n    }\n\n    //Down vote the customer\n    function downvoteCustomer(string memory customerName)\n        public\n        authorisedBank(msg.sender)\n        returns (bool)\n    {\n        require(\n            isKYCRequestExists(customerName),\n            \"KYC request for the customer doesnot exists\"\n        );\n        uint256 totalBanks = getTotalBanks();\n        customerList[customerName].downVotes++;\n\n        // To set kysStatus to false condition\n        if (\n            customerList[customerName].downVotes >\n            customerList[customerName].upVotes\n        ) {\n            customerList[customerName].kycStatus = false;\n        } else {\n            if (totalBanks > 5) {\n                if (\n                    (customerList[customerName].downVotes * 100) / totalBanks >\n                    33\n                ) {\n                    customerList[customerName].kycStatus = false;\n                }\n            }\n        }\n\n        return true;\n    }\n\n    // Get customer KYC status\n    function getKycStatus(string memory customerName)\n        public\n        view\n        returns (bool)\n    {\n        require(\n            isKYCRequestExists(customerName),\n            \"KYC request for the customer doesnot exists\"\n        );\n        return customerList[customerName].kycStatus;\n    }\n}\n",
  "sourcePath": "/Users/akash/Akash/PGD/sampleTruffle/contracts/Kyc.sol",
  "compiler": {
    "name": "solc",
    "version": "0.5.16+commit.9c3226ce.Emscripten.clang"
  },
  "schemaVersion": "3.3.4",
  "updatedAt": "2021-04-19T10:47:53.973Z",
  "devdoc": {
    "methods": {}
  },
  "userdoc": {
    "methods": {}
  }
}